:100000000C942A000C9481010C9445000C9445003A
:100010000C9445000C9445000C9445000C9445004C
:100020000C94B0010C9445000C9445000C944500D0
:100030000C9445000C9445000C9445000C9445002C
:100040000C9445000C9445000C9445000C9445001C
:100050000C94450011241FBECFE5D4E0DEBFCDBF18
:1000600010E0A0E6B0E0EEE1F2E102C005900D92F2
:10007000A236B107D9F710E0A2E6B0E001C01D92A8
:10008000AC36B107E1F70C94CD080C94000080E089
:1000900090E0FC013197F1F70197F1F70895D69AB6
:1000A000DE9880ED97E00197F1F7DE9A80E197E224
:1000B0000197F1F708958FB98EB1992780789270E2
:1000C000892BD1F30895D59A2FE78AB3822390E83C
:1000D000892B8ABBBB9AD69ABD9ABE9A87B38223D4
:1000E000892B87BBBC9A0895A098A798A198A69839
:1000F000A498A398A59808951F931FE79BB39123F5
:100100009BBBDD9A0E945B0088B3812390E8892B1A
:1001100088BB8BB38123892B8BBB81E090E01F913F
:1001200008951F931FE79BB391239BBBDD980E940B
:100130005B0088B3812390E8892B88BB8BB3812334
:10014000892B8BBB81E090E01F91089582EE0E9485
:10015000910080E40E94910081EA0E94910088EC65
:100160000E94910084EA0E94910086EA0E94910018
:1001700080E090E00197F1F782EA0E9491008FE21F
:100180000E94910087E20E94910081E80E94910004
:1001900080E10E9491008AEF0E94910080E90E9414
:1001A00091008FEA0E94910081E090E00895806BB9
:1001B0000E94910081E090E008951F93182F1295FE
:1001C0001F7010618F700E949100812F0E9491001A
:1001D00081E090E01F9108951F93CF9310E0812F4D
:1001E0000E94D700C0E08C2F0E94DD0080E00E94BA
:1001F0007C00CF5FC636B8F31F5F183080F3CF9115
:100200001F9108951F93CF9310E0812F0E94D70074
:10021000C0E08C2F0E94DD0080E00E947C0080E125
:1002200097E20197F1F7CF5FC63698F31F5F18305A
:1002300060F3CF911F9108951F93CF9310E0812F0A
:100240000E94D700C0E08C2F0E94DD008FEF0E943B
:100250007C00CF5FC636B8F31F5F0E94470019309D
:1002600070F3CF911F91089580E00E94D70080E045
:100270000E94DD000895FF920F931F93182F062F01
:10028000F42EDC9ADD9886E00E945B00DD9ADD9812
:1002900082E00E945B00812F0E945B00802F0E9401
:1002A0005B008F2D0E945B00DD9ADC981F910F91FF
:1002B000FF9008950F931F93182F062FDC9ADD9857
:1002C00085E00E945B00812F0E945B00802F0E94CE
:1002D0005B0080E00E945B008FB1DD9A99271F913F
:1002E0000F910895789485B7826085BF8BB780643D
:1002F0008BBF89B7846089BF12BE8EB585608EBD05
:1003000008951F920F920FB60F9211248F939F9909
:1003100003C085E780936700989903C084E68093C3
:1003200067009E9903C08CE680936700999903C08B
:1003300082E780936700839903C083E78093670017
:10034000859903C088E680936700849903C08DE691
:10035000809367008F910F900FBE0F901F9018959C
:100360001F920F920FB60F9211248F938091650008
:100370008095809365008F910F900FBE0F901F9016
:1003800018951F93162F0E94D700812F0E94DD0021
:1003900080E00E947C00812F81500E94DD0082E07D
:1003A0000E947C00812F82500E94DD0084E00E9428
:1003B0007C00812F83500E94DD0088E70E947C0032
:1003C000812F84500E94DD0088E70E947C00812FED
:1003D00085500E94DD0084E00E947C00812F8650C1
:1003E0000E94DD0082E00E947C00812F87500E94E5
:1003F000DD0080E00E947C001F9108951F93162F5E
:100400000E94D700812F0E94DD0080E00E947C00C6
:10041000812F81500E94DD008EE70E947C00812F99
:1004200082500E94DD0082E40E947C00812F835074
:100430000E94DD0082E40E947C00812F84500E9493
:10044000DD0082E40E947C00812F85500E94DD0047
:1004500084E20E947C00812F86500E94DD0088E1AA
:100460000E947C00812F87500E94DD0080E00E9466
:100470007C001F9108951F93162F0E94D700812F93
:100480000E94DD0080E00E947C00812F81500E944C
:10049000DD0082E40E947C00812F82500E94DD00FA
:1004A00082E40E947C00812F83500E94DD0082E460
:1004B0000E947C00812F84500E94DD008EE70E9404
:1004C0007C00812F85500E94DD0082E40E947C0028
:1004D000812F86500E94DD0082E40E947C00812FE3
:1004E00087500E94DD0080E00E947C001F910895EB
:1004F0001F93162F0E94D700812F0E94DD0080E0FD
:100500000E947C00812F81500E94DD008EE70E94B6
:100510007C00812F82500E94DD008AE50E947C00D1
:10052000812F83500E94DD008AE50E947C00812F8C
:1005300084500E94DD008AE50E947C00812F855056
:100540000E94DD008AE50E947C00812F86500E9477
:10055000DD0082E40E947C00812F87500E94DD0034
:1005600080E00E947C001F9108951F93162F0E9427
:10057000D700812F0E94DD0080E00E947C00812F47
:1005800081500E94DD008EE70E947C00812F825006
:100590000E94DD0082E50E947C00812F83500E9432
:1005A000DD0082E50E947C00812F84500E94DD00E6
:1005B00082E50E947C00812F85500E94DD0082E54B
:1005C0000E947C00812F86500E94DD008CE20E94F8
:1005D0007C00812F87500E94DD0080E00E947C001B
:1005E0001F9108951F93162F0E94D700812F0E94FC
:1005F000DD0080E00E947C00812F81500E94DD00A0
:100600008EE70E947C00812F82500E94DD0084E0F2
:100610000E947C00812F83500E94DD0088E00E94B0
:100620007C00812F84500E94DD0088E00E947C00C5
:10063000812F85500E94DD0084E00E947C00812F84
:1006400086500E94DD008EE70E947C00812F87503B
:100650000E94DD0080E00E947C001F9108951F939E
:10066000162F0E94D700812F0E94DD0080E00E949B
:100670007C00812F81500E94DD008CE30E947C0071
:10068000812F82500E94DD0082E40E947C00812F35
:1006900083500E94DD0082E40E947C00812F845000
:1006A0000E94DD0082E50E947C00812F85500E941F
:1006B000DD0082E50E947C00812F86500E94DD00D3
:1006C00084E30E947C00812F87500E94DD0080E03F
:1006D0000E947C001F9108951F93162F0E94D7003F
:1006E000812F0E94DD0080E00E947C00812F8150DC
:1006F0000E94DD008CE20E947C00812F82500E94CB
:10070000DD008AE40E947C00812F83500E94DD007E
:1007100082E50E947C00812F84500E94DD0082E5EA
:100720000E947C00812F85500E94DD0082E50E949E
:100730007C00812F86500E94DD0082E50E947C00B3
:10074000812F87500E94DD0084E20E947C00812F6F
:1007500088500E94DD0080E00E947C001F91089577
:100760001F93162F0E94D700812F0E94DD0080E08A
:100770000E947C00812F81500E94DD0082E00E9457
:100780007C00812F82500E94DD0082E00E947C006C
:10079000812F83500E94DD008EE70E947C00812F14
:1007A00084500E94DD008EE70E947C00812F8550DE
:1007B0000E94DD0082E00E947C00812F86500E9412
:1007C000DD0082E00E947C00812F87500E94DD00C6
:1007D00080E00E947C001F9108951F93162F0E94B5
:1007E000D700812F0E94DD0080E00E947C00812FD5
:1007F00081500E94DD008EE70E947C00812F825094
:100800000E94DD0086E00E947C00812F83500E94C0
:10081000DD008CE00E947C00812F84500E94DD006E
:1008200088E10E947C00812F85500E94DD0080E3DA
:100830000E947C00812F86500E94DD008EE70E947E
:100840007C00812F87500E94DD0080E00E947C00A8
:100850001F9108951F93162F0E94D700812F0E9489
:10086000DD0080E00E947C00812F81500E94DD002D
:100870008EE70E947C00812F82500E94DD008EE76F
:100880000E947C00812F83500E94DD0088E10E943D
:100890007C00812F84500E94DD008CE30E947C004C
:1008A000812F85500E94DD0086E60E947C00812F0A
:1008B00086500E94DD0082E50E947C00812F8750D7
:1008C0000E94DD0080E00E947C001F9108951F932C
:1008D000162F0E94D700812F0E94DD0080E00E9429
:1008E0007C00812F81500E94DD0080E00E947C000E
:1008F000812F82500E94DD0088E10E947C00812FC0
:1009000083500E94DD0088E10E947C00812F84508A
:100910000E94DD0088E10E947C00812F85500E94AA
:10092000DD0088E10E947C00812F86500E94DD005E
:1009300080E00E947C00812F87500E94DD0080E0D3
:100940000E947C001F9108951F93162F0E94D700CC
:10095000812F0E94DD0080E00E947C00812F8F5F4C
:100960000E94DD0080E00E947C00812F8E5F0E944B
:10097000DD0080E00E947C00812F8D5F0E94DD0001
:1009800088E10E947C00812F8C5F0E94DD0088E15D
:100990000E947C00812F8B5F0E94DD0080E00E941E
:1009A0007C00812F8A5F0E94DD0080E00E947C0035
:1009B000812F895F0E94DD0080E00E947C001F91F2
:1009C00008951F93162F0E94D700812F0E94DD00EB
:1009D00080E00E947C00812F8F5F0E94DD0080E01C
:1009E0000E947C00812F8E5F0E94DD0080E00E94CB
:1009F0007C00812F8D5F0E94DD0088E10E947C00D9
:100A0000812F8C5F0E94DD0088E10E947C00812F95
:100A10008B5F0E94DD0080E00E947C00812F8A5F56
:100A20000E94DD0080E00E947C00812F895F0E948F
:100A3000DD0080E00E947C001F9108951F93162F17
:100A40000E94D700812F0E94DD0080E00E947C0080
:100A5000812F8F5F0E94DD0082E40E947C00812F45
:100A60008E5F0E94DD0088E10E947C00812F8D5FF7
:100A70000E94DD0084E60E947C00812F8C5F0E9432
:100A8000DD0086E20E947C00812F8B5F0E94DD00EA
:100A900088E10E947C00812F8A5F0E94DD008AE449
:100AA0000E947C00812F895F0E94DD0080E00E940F
:100AB0007C001F9108951F93162F0E94D700812F4D
:100AC0000E94DD0089EA0E947C00812F8F5F0E94D6
:100AD000DD0082E40E947C00812F8E5F0E94DD0099
:100AE00081E00E947C00812F8D5F0E94DD0080EC00
:100AF0000E947C00812F8C5F0E94DD0083E00E94B9
:100B00007C00812F8B5F0E94DD0080E80E947C00CA
:100B1000812F8A5F0E94DD0082E40E947C00812F89
:100B2000895F0E94DD0085E90E947C001F91089585
:100B30001F93162F0E94D700812F0E94DD0081E8AD
:100B40000E947C00812F8F5F0E94DD0080E00E9468
:100B50007C00812F8E5F0E94DD0080E00E947C007F
:100B6000812F8D5F0E94DD0081E80E947C00812F33
:100B70008C5F0E94DD0080E00E947C00812F8B5FF3
:100B80000E94DD0080E00E947C00812F8A5F0E942D
:100B9000DD0080E00E947C00812F895F0E94DD00E3
:100BA00081E80E947C001F9108951F93162F0E94D8
:100BB000D700812F0E94DD0080E00E947C00812F01
:100BC0008F5F0E94DD0080E00E947C00812F8E5F9D
:100BD0000E94DD0080E00E947C00812F8D5F0E94DA
:100BE000DD0080E00E947C00812F8C5F0E94DD0090
:100BF00080E00E947C00812F8B5F0E94DD0080E0FE
:100C00000E947C00812F8A5F0E94DD0080E00E94AC
:100C10007C00812F895F0E94DD0080E00E947C00C3
:100C200081E090E01F9108958F929F92AF92BF92C2
:100C3000CF92DF92EF92FF920F931F93082F162F00
:100C40000E94D700812F0E94DD0080E00E947C007E
:100C5000912E9A94892D0E94DD0080EC0E947C00E8
:100C6000BEEFAB2EA10E8A2D0E94DD0080EE0E9409
:100C70007C00ADEFBA2EB10E8B2D0E94DD0080EF0F
:100C80000E947C00FCEFCF2EC10E8C2D0E94DD0057
:100C900088EF0E947C00EBEFDE2ED10E8D2D0E949E
:100CA000DD0088EF0E947C007AEFE72EE10E8E2DAA
:100CB0000E94DD0080EF0E947C0069EFF62EF10EAD
:100CC0008F2D0E94DD0080EE0E947C00802E839498
:100CD000882D0E94D700812F0E94DD0080E00E94B5
:100CE0007C00892D0E94DD0081E00E947C008A2D1D
:100CF0000E94DD0083E00E947C008B2D0E94DD00BD
:100D000087E00E947C008C2D0E94DD008FE00E9415
:100D10007C008D2D0E94DD008FE10E947C008E2DD5
:100D20000E94DD008FE30E947C008F2D0E94DD0079
:100D30008FE70E947C00802F0E94D70058EFA52EDD
:100D4000A10E8A2D0E94DD0080EE0E947C0047EFFC
:100D5000B42EB10E8B2D0E94DD0080EF0E947C002E
:100D600036EFC32EC10E8C2D0E94DD0088ED0E944F
:100D70007C0025EFD22ED10E8D2D0E94DD0088E162
:100D80000E947C0094EFE92EE10E8E2D0E94DD0082
:100D900080E30E947C0083EFF82EF10E8F2D0E94DD
:100DA000DD0080EE0E947C00012F0E50802F0E94FB
:100DB000DD0080EC0E947C001F50812F0E94DD002E
:100DC00080E00E947C00882D0E94D7008A2D0E941E
:100DD000DD008FE70E947C008B2D0E94DD008FE3F9
:100DE0000E947C008C2D0E94DD008DE10E947C0021
:100DF0008D2D0E94DD008EE00E947C008E2D0E94D1
:100E0000DD0087E00E947C008F2D0E94DD0083E0E2
:100E10000E947C00802F0E94DD0081E00E947C0007
:100E2000812F0E94DD0080E00E947C001F910F91C5
:100E3000FF90EF90DF90CF90BF90AF909F908F90FA
:100E400008958F929F92AF92BF92CF92DF92EF92CE
:100E5000FF920F931F93082F162F0E94D700812F08
:100E60000E94DD0080E00E947C00912E9A94892DE2
:100E70000E94DD0080E00E947C00AEEFAA2EA10E51
:100E80008A2D0E94DD0080EC0E947C00FDEFBF2EC9
:100E9000B10E8B2D0E94DD0080EE0E947C00ECEFF5
:100EA000CE2EC10E8C2D0E94DD0080EF0E947C00B2
:100EB0007BEFD72ED10E8D2D0E94DD0080EF0E949A
:100EC0007C006AEFE62EE10E8E2D0E94DD0080EFA1
:100ED0000E947C0059EFF52EF10E8F2D0E94DD004F
:100EE00080EE0E947C00802E8394882D0E94D70083
:100EF000812F0E94DD0080E00E947C00892D0E94ED
:100F0000DD0080E00E947C008A2D0E94DD0081E0EF
:100F10000E947C008B2D0E94DD0083E00E947C00FB
:100F20008C2D0E94DD0087E00E947C008D2D0E94A8
:100F3000DD008FE00E947C008E2D0E94DD008FE19D
:100F40000E947C008F2D0E94DD008FE30E947C00B8
:100F5000802F0E94D70048EFA42EA10E8A2D0E9458
:100F6000DD0080EE0E947C0037EFB32EB10E8B2D9A
:100F70000E94DD0080EF0E947C0026EFC22EC10E91
:100F80008C2D0E94DD0080E70E947C0095EFD92E19
:100F9000D10E8D2D0E94DD0080E30E947C0084EF45
:100FA000E82EE10E8E2D0E94DD0080EE0E947C0076
:100FB00003EFF02EF10E8F2D0E94DD0080EC0E94D9
:100FC0007C00012F0E50802F0E94DD0080E00E94E7
:100FD0007C001F50812F0E94DD0080E00E947C0079
:100FE000882D0E94D7008A2D0E94DD008FE70E9485
:100FF0007C008B2D0E94DD008FE30E947C008C2DF5
:101000000E94DD008DE10E947C008D2D0E94DD009C
:101010008EE00E947C008E2D0E94DD0087E00E9401
:101020007C008F2D0E94DD0083E00E947C00802FD9
:101030000E94DD0081E00E947C00812F0E94DD0083
:1010400080E00E947C001F910F91FF90EF90DF9055
:10105000CF90BF90AF909F908F9008958091670040
:10106000833791F4809160008F3F19F48CB7865FCD
:1010700002C08CB78A508CBF4CB760E088E00E94F9
:101080003B01DC98109267008CB78B3F18F01092F0
:10109000600006C08CB7853018F48FEF8093600035
:1010A00080E090E00197F1F70895809167008D3618
:1010B00091F4909163009F3F31F410926300DC98AB
:1010C000109267000895992331F48FEF80936300A5
:1010D000DC9890936700089560E582E00E943B02EF
:1010E00060E583E00E94780268E483E00E94F202F7
:1010F00060E483E00E94B50268E383E00E94780226
:1011000060E383E00E94FE0168E283E00E94FE014A
:1011100060E283E00E94780268E183E00E94FE01C1
:1011200060E584E00E946C0368E484E00E94C101F1
:1011300060E484E00E946C0368E384E00E94B003F2
:1011400060E384E00E94780268E284E00E94F20298
:1011500060E585E00E94FE0168E485E00E94780277
:1011600060E485E00E946C0368E385E00E943B0236
:1011700060E385E00E942F0368E285E00E94ED03B2
:1011800068E187E00E94670460E187E00E946C03E9
:1011900068E087E00E942A040895CFE5D4E0DEBF2E
:1011A000CDBFDC9AD49ADC980E9463008DB18C6527
:1011B0008DB90E944F000E94A6000E94720183B761
:1011C000896783BF0E94EC000E9447000E9447008D
:1011D000C39A0E941C010E9447000E9447000E947F
:1011E000EC00C1E0D0E00E946C08CC33D10534F4AF
:1011F00066E481E00E941406DC980FC0CE01CD9712
:10120000CB9730F466E481E00E942107DC9A05C0A8
:0E121000C837D10514F0C0E0D0E02196E4CF3D
:02121E00FF00CF
:040000050080006611
:00000001FF
